:020000040000FA
:100000008316031306309F008501860183120313B4
:10001000851486010030A1000930A3000030A20041
:100020000A30A40005148510A10A2108402086008A
:100030003720051085142208402086003720A30BA6
:1000400012200030A1000930A30085140510A20A77
:100050002208402086003720A40B12200030A10087
:100060000930A3000030A2000A30A4001220F730AB
:10007000A5004730A600A60B3B28A50B3928080091
:1000800082073F3406345B344F3466346D347D343C
:0800900007347F346F340800CF
:00000001FF
