:020000040000FA
:1000000083160313860183160313880183120313D7
:10001000860188010E200615861115200230382031
:100020000C303820283038200800803038204D30FF
:1000300047208130382045304720823038204830F2
:100040004720833038204D304720843038204530D9
:1000500047208530382054304720C0303820553074
:10006000472047304720553047205A3047205F28E7
:10007000A400240E3E2024083E2008000F398312DD
:100080000313880006120617562006130800A40062
:10009000240E4D2024084D2008000F39831203132D
:1000A0008800061606175620061308001030A50013
:0E00B0001030A600D80B5A28D60B582808008E
:0200BE0000340C
:0200C00000340A
:02400E00313F40
:00000001FF
