:020000040000FA
:020000000528D1
:040002000034003492
:08000800052883169F01F0306A
:10001000880086018701831229309F0087018801AB
:1000200086010030A7000030A6000030A500003097
:10003000A4008030AD00030121204B202620672042
:100040001C281F141F191E08AC000800A501A401DC
:10005000A6013008AE000310031164302E0203190C
:100060003428031836283A28A60A0800A60A64305D
:10007000AE022B28031003110A302E020319452863
:10008000031847282E08A4000800A50A0800A50A9E
:100090000A30AE023A28031003112D082C0203196E
:1000A0005528031857285F280800B00108000710DA
:1000B00080302C02B0000310B00DB00A0800071405
:1000C0002C087F3CB0000310B00DB00A08000130CE
:1000D000AF002708880001308600812026088800AC
:1000E00002308600812025088800043086008120A7
:1000F00024088800083086008120AF0B692886011B
:1001000008000230A0003230A1003230A200A20B61
:0C0110008728A10B8528A00B832808007D
:02400E007A3FF7
:00000001FF
