:020000040000FA
:020000000528D1
:040002000034003492
:080008001E2883160313860174
:1000100088018312031388018601FF30A300A20127
:10002000831603136F308100831203138B178B1613
:100030000B1183120313063081001D288312031352
:100040000B11831203130E308100A30B09002D2026
:1000500083120313FF30A300090022080A3C031D8A
:100060003428A2013428080022083D208800061602
:10007000061749200613A20A090082073F340634F6
:100080005B344F3466346D347D3407347F346F34E1
:1000900008005530A5001530A600A60B4D28A50B6D
:0400A0004B280800E1
:02400E00313F40
:00000001FF
