:020000040000FA
:1000000083120313870185010130A00083160313B7
:1000100006309F008316031387010F30850083127B
:100020000313121592101214831603133130920029
:10003000831203130C3097000530950083120313CD
:100040000C309D000F309B0005182D2885182D2899
:1000500005193D2885193D282428051C30283328FA
:10006000851C2D28382805183328200895072428B2
:1000700085183828200895022428051D4028432883
:10008000851D3D2848280519432820089B0724285A
:0A0090008519482820089B02242847
:04009A0000340034FA
:02400E00313F40
:00000001FF
