:020000040000FA
:020000000528D1
:040002000034003492
:0800080009280E2030201C2005
:100010000828831203131A084820090083160313C3
:100020008601880183160313FF30870083120313B0
:100030008801860187010800831603133330990075
:100040008316031304309800831203139030980032
:10005000831203138B170B17831603138C160800D8
:1000600002303920283039200C30392080303920B6
:100070000800A100210E3F2021083F2008000F3971
:100080008800831203130612061757200613080070
:10009000A100210E4E2021084E2008000F398800B3
:1000A000831203130616061757200613080055304F
:0800B000A000A00B5928080074
:00000001FF
