:020000040000FA
:020000000528D1
:040002000034003492
:0800080005288316FF30920069
:1000100006309F00F03088008701850183120C3084
:1000200097000530920095018701880185013230E3
:10003000A30003011C201A2808182414881824106F
:1000400008194E2888195128241828283B28080008
:1000500083120A308500870054200630850087000F
:100060005420053085008700542009308500870022
:10007000542085011A2883120930850087005420F6
:100080000530850087005420063085008700542005
:100090000A3085008700542085011A281E30A300ED
:1000A0001A287830A3001A282308A0003230A100B3
:1000B0003230A200A20B5A28A10B5828A00B5628B8
:0200C000080036
:02400E007A3FF7
:00000001FF
