:020000040000FA
:020000000528D1
:040002000034003492
:0800080005288316880186011A
:100010008312880186010030A7000030A60000305E
:10002000A5000030A40003010A30AB000A30AA008A
:100030000A30A9000A30A8002E20A40AA80B1C2808
:10004000A401A50AA90B1A28A501A60AAA0B18281B
:10005000A601A70AAB0B1628A7011C2827088800B1
:1000600001308600442026088800023086004420A3
:1000700025088800043086004420240888000830C1
:1000800086004420860108003230A0003230A100F2
:100090003230A200A20B4A28A10B4828A00B462808
:0200A000080056
:02400E007A3FF7
:00000001FF
