:020000040000FA
:020000000528D1
:040002000034003492
:0800080025288316031386016D
:10001000880183120313860188010530A300003094
:10002000A400A70083120313B0308E003C308F0071
:10003000831203138B170B17831603130C148312ED
:1000400003131012901610142428831203130C109B
:1000500083120313B0308E003C308F00A30B0900D5
:100060003620831203130530A300090024080A3C3C
:10007000031D3C28A401080024084520880006161A
:10008000061751200613A40A090082073F340634DC
:100090005B344F3466346D347D3407347F346F34D1
:1000A00008005530A5001530A600A60B5528A50B55
:0400B00053280800C9
:02400E00313F40
:00000001FF
