:020000040000FA
:020000000C28CA
:040002000034003492
:08000800831203138C12831212
:1000100003131A0840200900831603138601880180
:10002000871783120313860188012C200615861179
:1000300083160313193099008316031304309800B4
:100040008312031390309800831203138B170B173E
:10005000831603138C162B280230352038303520B8
:100060000C303520803035200800831203138800BF
:10007000831203138612061206174B20061308007C
:1000800083120313880083120313861206160617C1
:100090004B20061308003030A2008030A300A30BD1
:0800A0004F28A20B4D280800B7
:02400E00313F40
:00000001FF
