:020000040000FA
:020000000528D1
:040002000034003492
:080008002B2883160313860167
:1000100083160313850106309F00831203138601A4
:100020008312031385010A30A0000030A200A4004F
:10003000831203133C308F00B0308E008312031301
:10004000C0308B00831603130C1483120313901219
:10005000101610142A28831203130C108312031392
:10006000A10A3C308F00B0308E00A00B09003B206D
:100070000A30A00009002408063C031D402809009E
:10008000851405102408632086006A20A40A22082B
:100090000A3C031D4C2854200514851022085720C3
:1000A0008600A20A6A200900A401A20108008207B2
:1000B000C034F934A434B034993492348234F834EE
:1000C0008034903408008207C034F934A434B0344A
:1000D000993492341930A500FF30A600A60B6E2883
:0600E000A50B6C280800CE
:02400E00313F40
:00000001FF
