:020000040000FA
:020000000528D1
:040002000034003492
:080008002E2883160313860164
:1000100006309F0005148514831203138601831292
:1000200003130530A0000130A900A801A701B20107
:10003000B101B001831203133C308F00B0308E0049
:1000400083120313C0308B00831603130C14831226
:1000500003139012101610146A202D288312031314
:100060000C10831203133C308F00B0308E00A00BB5
:10007000A8283D200530A00009006A2082307120A8
:100080003008EC20DD20813071203108EC20DD20AB
:10009000803071203208EC20DD204F20080009302C
:1000A000300203195528B00A0800B00103150930C1
:1000B0003102031D5C285E28B10A3D28B1010315F9
:1000C0000130320203196628B20A3D28B001B1019D
:1000D000B2013D28023071200C307120283071208F
:1000E0000800A100210E77202108772008000F3991
:1000F00086008312031306128616F8208612080063
:100100006A200A30270203199528C2307120270877
:10011000EC20DD20C13071202808EC20DD20C0302B
:1001200071202908EC20DD20A828A7010930280229
:10013000031D9B289D28A80A8028A80102302902B7
:100140000319A428A90A8028A701A801A9018028C9
:100150000518AD288518BC2809000518AD28A70A80
:10016000093029020319B52080280130A900003088
:10017000A8000030A70008008518BC28C0208028EF
:10018000003027020319C620A70308000A30A70081
:10019000003028020319CE20A80308000A30A80066
:1001A000013029020319D620A90308000A30A9004A
:1001B0000A30A8000A30A7000800A100210EE320A1
:1001C0002108E32008000F39860083120313061666
:1001D0008616F82086120800820730343134323413
:1001E0003334343435343634373438343934080021
:1001F0001E30A2005030A300A30BFC28A20BFA284B
:020200000800F4
:02400E00313F40
:00000001FF
