:020000040000FA
:020000000528D1
:040002000034003492
:08000800292883160313860169
:1000100085018316031306309F00831203138501A5
:1000200086010A30A400A5000630A800831203133D
:100030008B170B17831203133C308F00B0308E00E8
:10004000831603130C14831203139012101610144A
:100050002828831203130C10831203133C308F00E3
:10006000B0308E00A40B3A283B20831203130A30D1
:10007000A400000009008312031305108514A50BCA
:1000800048280A30A500A80B4C280630A8003A28BA
:100090002508532086005F2005148510280853206A
:1000A00086005F203A2882073F3406345B344F34A1
:1000B00066346D347D3407347F346F34080010307B
:1000C000A600F030A700A70B6328A60B6128080044
:02400E00313F40
:00000001FF
