:020000040000FA
:1000000001288316031306309F008316031386010D
:10001000850105148312031386018501A401A5013E
:10002000A701A601A901B0016430A4000330A50016
:1000300003012407A600031C1E282128A50B19284C
:1000400026280310A70AA50B19282628051C2628F0
:100050002928260886003520051C29282F2827084E
:1000600086003520051C2F282928FF30A900FF30E5
:0C007000B000B00B3928A90B372808009D
:04007C000034003418
:02400E00313F40
:00000001FF
