:020000040000FA
:020000000528D1
:0800080005288316031386018D
:10001000F030880083120313860188010030A300AA
:10002000A400A500A60014280A30A7000A30A800E2
:100030000A30A9000A30B0002E20A30AB00B1C28F9
:10004000A301A40AA90B1A28A401A50AA80B182821
:10005000A501A60AA70B1628A601142883120313CC
:10006000083023088800043024088800023025085E
:10007000880001302608880008003230A0003230A5
:10008000A1003230A200A20B4128A10B3F28A00BF7
:040090003D280800FF
:02400E00313F40
:00000001FF
