:020000040000FA
:100000008316031386018312031386010530A000B3
:100010000A20332802301120283011200C30112002
:100020000800A100210E17202108172008000F3911
:1000300083120313860083120313061286164020D0
:1000400086120800A100210E28202108282008007F
:100050000F398312031386008312031306168616C4
:100060004020861208008030112053302220813039
:1000700011204F302220823011204F30222033288F
:10008000A030A2007030A300A30B4428A20B42288A
:02009000080066
:040092000034003402
:02400E00323F3F
:00000001FF
