:020000040000FA
:100000008316031386010514851483160313063023
:100010009F008312031386013530A1000430A20033
:100020001830A8008030A9008130A700182055287A
:1000300001302120023021200C30212028302120C5
:100040000800A000A5002C2025083220200832201E
:1000500008000430A2000800A50CA20B2C280430D4
:10006000A2000800A5003D20250886008312031386
:10007000061286166F2086120800A50DA20B3D28D9
:1000800044200430A2000800A50CA20B442808005C
:100090008F302902031D4D285028A90AA70A552888
:1000A0008030A9008130A700552818202908212078
:1000B00032306020270821203330602048285F2814
:1000C000A000200E66202008662008000F39860058
:1000D00083120313061686166F20861208001E3040
:1000E000A3005030A400A40B7328A30B71280800B0
:0400F00000340034A4
:02400E00313F40
:00000001FF
