:020000040000FA
:020000000528D1
:0800080005288316031386018D
:10001000F030880083120313860188010030A600A7
:10002000A500A400A3008E2016201328F730880016
:10003000081A1F280030A4000130A3000800881A05
:1000400026280030A4000230A3000800081B2D2839
:100050000030A4000330A3000800881B34280030BF
:10006000A4000430A3000800FB308800081A3D28D3
:100070000030A4000530A3000800881A442800308E
:10008000A4000630A3000800081B4B280030A40081
:100090000730A4000800881B52280030A400083054
:1000A000A3000800FD308800081A5B280030A40077
:1000B0000930A3000800881A62280130A40000302B
:1000C000A3000800081B69280130A4000130A40027
:1000D0000800881B70280130A4000230A30008002B
:1000E000FE308800081A79280130A4000330A300EC
:1000F0000800881A80280130A4000430A3000800FA
:10010000081B87280130A4000530A4000800881BC4
:1001100008000130A4000630A30008000830860063
:1001200023088800A4200430860024088800A42026
:100130000230860025088800A420013086002608A9
:100140008800A42086010800831203133230A00027
:100150003230A1003230A200A20BAC28A10BAA2899
:06016000A00BA828080016
:02400E00FA3F77
:00000001FF
