:020000040000FA
:020000000528D1
:040002000034003492
:0800080005288316F030880082
:1000100086018312880186010030A7000030A60007
:100020000030A5000030A4000301952018201528F9
:10003000F7308800AB20081A22280030A5000130D4
:10004000A4000800881A29280030A5000230A40066
:100050000800081B30280030A5000330A400080069
:10006000881B37280030A5000430A4000800FB30AE
:100070008800AB20081A41280030A5000530A400F4
:100080000800881A48280030A5000630A40008009F
:10009000081B4F280030A5000730A4000800881B6B
:1000A00056280030A5000830A4000800FD30880064
:1000B000AB20081A60280030A5000930A400080011
:1000C000881A67280130A5000030A4000800081B2A
:1000D0006E280130A5000130A4000800881B752897
:1000E0000130A5000230A4000800FE308800AB20DB
:1000F000081A7F280130A5000330A4000800881AE0
:1001000086280130A5000430A4000800081B8D28B3
:100110000130A5000530A4000800881B080001304C
:10012000A5000630A4000800182827088800013020
:100130008600AB202608880002308600AB20250808
:10014000880004308600AB20240888000830860030
:10015000AB20860108000230A0003230A10032300E
:10016000A200A20BB128A10BAF28A00BAD2808005C
:02400E007A3FF7
:00000001FF
