:020000040000FA
:020000000928CD
:040002000034003492
:08000800831203131A084320C0
:1000100009008316031386018801871783120313CF
:1000200086018801292006158611831603131930CD
:100030009900831603130430980083120313903041
:100040009800831203138B170B17831603138C1658
:10005000282802303220283032200C303220C030A4
:1000600032200800A400240E38202408382008007C
:100070000F398312031386008312031306128616A8
:10008000542086120800A400240E49202408492088
:1000900008000F3983120313860083120313061618
:1000A00086165420861208003030A2008030A3004B
:0A00B000A30B5828A20B56280800E5
:02400E00313F40
:00000001FF
